:100000000C946E000C94690D0C94920D0C94BB0D25
:100010000C948B000C948B000C948B000C94620954
:100020000C948B000C9434090C948B000C94920B60
:100030000C948B000C9444070C948B000C941B07BD
:100040000C948B000C94960C0C948B000C948B00ED
:100050000C948B008C289E28B028B628652B6B2B1F
:10006000712B772B7D2B832B892B102C162C1C2C82
:10007000222C282C2E2C342C3A2C402C462C332885
:1000800092289828A428AA28BC28C228C828232A4D
:100090003F2B592B5F2B8F2B952B9B2BA12BE62BCB
:1000A000EC2BF22BF82BFE2B042C0A2C4C2C522C74
:1000B000582C5E2C642C6A2C702C762C7C2C822C78
:1000C000882C8E2C942C9A2CA02CA62CAC2CB22CE8
:1000D000B82CBE2CC42CCA2CD02CD62C11241FBE5C
:1000E000CFE5D8E0DEBFCDBF17E0A0E6B0E0E6E5A3
:1000F000FCE502C005900D92AA3CB107D9F718E0C3
:10010000AAECB7E001C01D92A830B107E1F70E9448
:10011000382D0C94292E0C940000EF92FF920F932F
:100120001F937B018C0120E030E040E05FE40E94FF
:100130000F0388238CF0C801B70120E030E040E0D5
:100140005FE40E9405020E943F039B01AC01205026
:1001500030404040504806C0C801B7010E943F03EC
:100160009B01AC01B901CA011F910F91FF90EF9063
:100170000895A0E0B0E0EFEBF0E00C94C32DDC01BB
:100180002B01FA019C91923008F439C1EB0188816E
:10019000823008F433C1943069F4843009F02FC1FF
:1001A00011969C9111978981981709F428C1AAE9A1
:1001B000B6E025C1843009F421C18230A9F492301F
:1001C00009F01DC19A01AD0188E0EA010990AE0174
:1001D000E90109929E018150C1F7E20189811196DE
:1001E0009C918923818308C1923009F407C112963A
:1001F0002D903C901397EB018A819B811496AD90D2
:10020000BD90CD90DC901797EC80FD800E811F8112
:100210009101281B390BB90137FF04C066277727E6
:10022000621B730B603271050CF061C0121613066D
:100230006CF537014801062E04C096948794779494
:1002400067940A94D2F721E030E040E050E004C027
:10025000220F331F441F551F6A95D2F7215030409B
:10026000404050402E213F2140235123211531058C
:100270004105510521F021E030E040E050E07901F6
:100280008A01E628F728082919293CC0232BD1F137
:10029000260E371E35014601062E04C0969487941B
:1002A000779467940A94D2F721E030E040E050E080
:1002B00004C0220F331F441F551F6A95D2F72150E7
:1002C0003040404050402A213B214C215D212115E6
:1002D00031054105510521F021E030E040E050E0DA
:1002E00059016A01A628B728C828D9280BC0821549
:1002F00093052CF01C01AA24BB24650103C0EE2445
:10030000FF24870111969C91D20111968C91981728
:1003100009F445C0992339F0A80197012A193B092E
:100320004C095D0906C0A60195012E193F09400B35
:10033000510B57FD08C011823382228224833583FA
:10034000468357831DC081E08183338222828827C0
:100350009927DC01821B930BA40BB50B8483958337
:10036000A683B7830DC0220F331F441F551F24835C
:100370003583468357838281938101979383828358
:100380002481358146815781DA01C9010197A1098C
:10039000B1098F5F9F4FAF4FBF4328F30BC09183CD
:1003A00033822282EA0CFB1C0C1D1D1DE482F582A7
:1003B0000683178383E080832481358146815781BA
:1003C00057FF1AC0C901AA2797FDA095BA2F8170BF
:1003D0009070A070B0705695479537952795822BF1
:1003E000932BA42BB52B84839583A683B78382811B
:1003F0009381019693838283DF0101C0D201CD01F5
:10040000CDB7DEB7E2E10C94DF2DA0E2B0E0EBE087
:10041000F2E00C94CF2D69837A838B839C832D83A8
:100420003E834F835887E9E0EE2EF12CEC0EFD1E43
:10043000CE010196B7010E9430058E010F5E1F4F5D
:10044000CE010596B8010E9430058A8991E089277E
:100450008A8BC701B801AE01475E5F4F0E94B900A9
:100460000E945B04A096E6E00C94EB2DA0E2B0E0C5
:10047000ECE3F2E00C94CF2D69837A838B839C8329
:100480002D833E834F835887F9E0EF2EF12CEC0E3D
:10049000FD1ECE010196B7010E9430058E010F5E50
:1004A0001F4FCE010596B8010E943005C701B80163
:1004B000AE01475E5F4F0E94B9000E945B04A096A8
:1004C000E6E00C94EB2DA8E1B0E0E9E6F2E00C9454
:1004D000CB2D69837A838B839C832D833E834F83CB
:1004E0005887B9E0EB2EF12CEC0EFD1ECE010196E3
:1004F000B7010E9430058E010F5E1F4FCE01059699
:10050000B8010E9430052985223008F47EC039895F
:10051000323010F4B8017CC08A859A8989278A878D
:10052000243011F0223031F4231709F06EC06AE94B
:1005300076E06EC0343039F41D861E861F86188A18
:100540001C861B8604C0323021F484E08987B70101
:100550005FC02B853C858B899C89281B390B3C8788
:100560002B87ED84FE840F851889AD88BE88CF88DF
:10057000D88CEA14FB040C051D0540F4EE0CFF1C9E
:10058000001F111F215030403C872B8720E030E0B6
:1005900040E050E080E090E0A0E0B0E460E070E097
:1005A000EA14FB040C051D0540F0282B392B4A2BBF
:1005B0005B2BEA18FB080C091D09B695A7959795C2
:1005C0008795EE0CFF1C001F111F6F5F7F4F6F316F
:1005D000710531F7DA01C9018F779070A070B070A2
:1005E00080349105A105B10561F427FD0AC0E1142D
:1005F000F1040105110529F0205C3F4F4F4F5F4F7B
:1006000020782D873E874F87588BBE01675F7F4FCD
:10061000CB010E945B046896EAE00C94E72DA8E108
:10062000B0E0E5E1F3E00C94CF2D69837A838B830E
:100630009C832D833E834F83588789E0E82EF12CDD
:10064000EC0EFD1ECE010196B7010E9430058E0111
:100650000F5E1F4FCE010596B8010E9430058985B7
:10066000823040F08989823028F0C701B8010E94A9
:10067000A80501C08FEF6896E6E00C94EB2DACE086
:10068000B0E0E5E4F3E00C94D32D69837A838B83A7
:100690009C83CE010196BE016B5F7F4F0E943005A7
:1006A0008D81823061F1823050F1843021F48E816D
:1006B000882351F12EC02F81388537FD20C06E81EF
:1006C0002F3131051CF06623F9F023C08EE190E054
:1006D000821B930B29853A854B855C8504C0569512
:1006E0004795379527958A95D2F76623B1F05095AF
:1006F0004095309521953F4F4F4F5F4F0EC020E002
:1007000030E040E050E009C02FEF3FEF4FEF5FE7F0
:1007100004C020E030E040E050E8B901CA012C9666
:10072000E2E00C94EF2DA8E0B0E0E9E9F3E00C94EE
:10073000CB2D7B018C01611571058105910519F4A3
:1007400082E0898360C083E089838EE1C82ED12C4A
:10075000DC82CB82ED82FE820F831887C801B7014D
:100760000E940C04FC013197F7FF3BC0222733277E
:100770002E1B3F0B57016801022E04C0D694C7946C
:10078000B794A7940A94D2F740E050E060E070E09C
:1007900081E090E0A0E0B0E004C0880F991FAA1F9C
:1007A000BB1F2A95D2F70197A109B1098E219F217C
:1007B000A023B1230097A105B10521F041E050E04D
:1007C00060E070E04A295B296C297D294D835E83B6
:1007D0006F8378878EE190E08E1B9F0B9C838B83C9
:1007E00012C0309781F00E2E04C0EE0CFF1C001FCB
:1007F000111F0A94D2F7ED82FE820F831887CE1A5A
:10080000DF0ADC82CB821A82CE0101960E945B0451
:100810002896EAE00C94E72DEF92FF920F931F9336
:100820007B018C0180E0E81680E0F80681E0080793
:1008300080E0180788F48FEFE816F1040105110530
:1008400031F028F088E090E0A0E0B0E017C080E050
:1008500090E0A0E0B0E012C080E0E81680E0F8068A
:1008600080E0080781E0180728F088E190E0A0E028
:10087000B0E004C080E190E0A0E0B0E020E230E031
:1008800040E050E0281B390B4A0B5B0B04C0169567
:100890000795F794E7948A95D2F7F701EE55F94F4B
:1008A0008081281B310941095109C9011F910F910C
:1008B000FF90EF900895DF92EF92FF920F931F93B6
:1008C000FC01E480F58006811781D180808182302F
:1008D00048F480E090E0A0E1B0E0E82AF92A0A2B91
:1008E0001B2BA5C0843009F49FC0823021F4EE2474
:1008F000FF24870105C0E114F1040105110519F475
:10090000E0E0F0E096C0628173819FEF6238790782
:100910000CF05BC022E83FEF261B370B2A31310574
:100920002CF020E030E040E050E02AC0B801A70100
:10093000022E04C076956795579547950A94D2F78D
:1009400081E090E0A0E0B0E004C0880F991FAA1FEA
:10095000BB1F2A95D2F70197A109B1098E219F21CA
:10096000A023B1230097A105B10521F081E090E01B
:10097000A0E0B0E09A01AB01282B392B4A2B5B2B6E
:10098000DA01C9018F779070A070B0708034910542
:10099000A105B10539F427FF09C0205C3F4F4F4F37
:1009A0005F4F04C0215C3F4F4F4F5F4FE0E0F0E0EE
:1009B0002030A0E03A07A0E04A07A0E45A0710F070
:1009C000E1E0F0E079018A0127C06038710564F543
:1009D000FB01E158FF4FD801C7018F779070A070DD
:1009E000B07080349105A105B10539F4E7FE0DC062
:1009F00080E490E0A0E0B0E004C08FE390E0A0E0ED
:100A0000B0E0E80EF91E0A1F1B1F17FF05C0169560
:100A10000795F794E794319687E016950795F79434
:100A2000E7948A95D1F705C0EE24FF248701EFEF04
:100A3000F0E06E2F679566276795902F9F77D79484
:100A4000DD24D7948E2F8695492F462B582F5D296C
:100A5000B701CA011F910F91FF90EF90DF900895A9
:100A6000FC01DB01408151812281622F6F7770E0B0
:100A7000221F2227221F9381892F880F822B282F44
:100A800030E0991F9927991F11969C931197211572
:100A90003105A9F5411551056105710511F482E093
:100AA00037C082E89FEF13969C938E9312979A011A
:100AB000AB0167E0220F331F441F551F6A95D1F722
:100AC00083E08C930DC0220F331F441F551F1296D5
:100AD0008D919C911397019713969C938E931297E7
:100AE000203080E0380780E0480780E4580758F35A
:100AF00014962D933D934D935C93179708952F3F34
:100B0000310579F4411551056105710519F484E049
:100B10008C93089564FF03C081E08C9312C01C92F3
:100B200010C02F57304013963C932E93129783E0BA
:100B30008C9387E0440F551F661F771F8A95D1F766
:100B4000706414964D935D936D937C9317970895FD
:100B50001F93DC01FB019C91923008F447C0808117
:100B6000823008F443C0943051F411961C918430C3
:100B700099F58181682F70E0611B71093FC0843055
:100B800021F0923031F48230B9F18181882389F1EA
:100B90002DC011961C9111978230F1F081811817A8
:100BA000D9F412962D913C911397828193818217EB
:100BB000930794F028173907BCF014968D919D91F6
:100BC0000D90BC91A02D2481358146815781281735
:100BD00039074A075B0718F4112341F00AC082174E
:100BE0009307A407B50740F4112319F061E070E002
:100BF00005C06FEF7FEF02C060E070E0CB011F9196
:100C0000089583E389B9A0E4B0E01C92EAE2F0E041
:100C100080818061808380818860808380818B7FF8
:100C2000808386E88C930895982FEBE2F0E0808132
:100C300085FFFDCF9CB90895EBE2F0E08081882329
:100C4000ECF78CB108951F93CF93DF93EC0188816B
:100C5000882351F010E00E9414061F5FFE01E10F8F
:100C6000F11D80818823B9F7DF91CF911F910895FD
:100C7000AF92BF92CF92DF92EF92FF920F931F93AA
:100C80005B016C01611571058105910559F480E3E3
:100C90000E94140651C081E0E816F1040105110517
:100CA00059F54AC0EE24FF248701E394C801B70137
:100CB0002AE030E040E050E00E945B2D7B018C0197
:100CC000C601B5010E94A12DE60EF71E081F191FCF
:100CD000C601B5012AE030E040E050E00E94A12DBD
:100CE000822F932FA42FB52F5C016D01A114B104A5
:100CF000C104D104D9F6CFCFC801B7012AE030E052
:100D000040E050E00E94A12D862F805D0E941406D5
:100D1000C801B7012AE030E040E050E00E94A12D78
:100D2000822F932FA42FB52F7C018D0181E0E8162F
:100D3000F1040105110501F71F910F91FF90EF904C
:100D4000DF90CF90BF90AF900895EF92FF921F93E6
:100D5000DF93CF93CDB7DEB7C456D0400FB6F8942B
:100D6000DEBF0FBECDBF611571058105910521F470
:100D700080E30E9414062CC031E0AE014F5F5F4F4C
:100D8000262F2F702A3010F4205D01C0295CFA0153
:100D9000E30FF11D20833F5F689413F896958795C4
:100DA000779567951694D1F76115710581059105C1
:100DB00039F7132F115061F07E010894E11CF11CEA
:100DC000F701E10FF11D80810E9414061150C1F757
:100DD000CC59DF4F0FB6F894DEBF0FBECDBFCF9119
:100DE000DF911F91FF90EF9008958CB908958CB119
:100DF0000895EAE2F0E08081806880830895EAE265
:100E0000F0E080818F7780830895EAE2F0E08081CE
:100E1000806480830895EAE2F0E080818F7B8083A4
:100E200008959093CD078093CC0708959093CB07B6
:100E30008093CA0708951F920F920FB60F92112444
:100E40002F933F934F935F936F937F938F939F93D2
:100E5000AF93BF93EF93FF93E091CC07F091CD0751
:100E6000309709F00995FF91EF91BF91AF919F9154
:100E70008F917F916F915F914F913F912F910F9043
:100E80000FBE0F901F9018951F920F920FB60F92E2
:100E900011242F933F934F935F936F937F938F937F
:100EA0009F93AF93BF93EF93FF93E091CA07F091A5
:100EB000CB07309709F00995FF91EF91BF91AF9162
:100EC0009F918F917F916F915F914F913F912F9162
:100ED0000F900FBE0F901F901895873009F4A1C096
:100EE000883090F4833009F458C0843030F4813075
:100EF00091F1823008F040C01DC0853009F46FC008
:100F0000863008F07DC05AC08B3009F4CEC08C30DA
:100F100038F4893009F4A7C08A3008F0B5C092C00F
:100F20008D3009F4E4C08D3008F4D0C08E3009F063
:100F3000FFC0EEC0EFE4F0E080818E7F808380818F
:100F40008D7F8083EEE4F0E08081877F80838081E5
:100F50008F7E8083EDC0EFE4F0E08081816080834C
:100F600080818D7F8083EEE4F0E08081877F8083C5
:100F700080818F7E8083DCC0EFE4F0E080818E7F13
:100F80008083808182608083EEE4F0E08081877FCF
:100F9000808380818F7E8083CBC0EFE4F0E080810E
:100FA00081608083808182608083EEE4F0E08081D4
:100FB000877F808380818F7E8083BAC0EFE4F0E0FA
:100FC00080818E7F808380818D7F8083EEE4F0E05E
:100FD00080818860808380818F7E8083A9C0EFE4D8
:100FE000F0E080818160808380818D7F8083EEE46A
:100FF000F0E080818860808380818F7E808398C0CC
:10100000EFE4F0E080818E7F808380818260808346
:10101000EEE4F0E080818860808380818F7E808331
:1010200087C0EFE4F0E0808181608083808182600E
:101030008083EEE4F0E080818860808380818F7E11
:10104000808376C0EFE4F0E080818E7F80838081B2
:101050008D7F8083EEE4F0E08081877F80838081D4
:101060008061808365C0EFE4F0E0808181608083EF
:1010700080818D7F8083EEE4F0E08081877F8083B4
:1010800080818061808354C0EFE4F0E080818E7FB6
:101090008083808182608083EEE4F0E08081877FBE
:1010A000808380818061808343C0EFE4F0E08081B1
:1010B00081608083808182608083EEE4F0E08081C3
:1010C000877F808380818061808332C0EFE4F0E09D
:1010D00080818E7F808380818D7F8083EEE4F0E04D
:1010E00080818860808380818061808321C0EFE47B
:1010F000F0E080818E7F8083808182608083EEE457
:10110000F0E080818860808380818061808310C06E
:10111000EFE4F0E080818160808380818260808361
:10112000EEE4F0E08081886080838081806180834C
:10113000EEE4F0E08081887F80838081862B80834D
:10114000EFE4F0E080818068808380818F7B808302
:1011500080818F7E8083808180628083089581304A
:1011600001F1813030F08230A1F1833009F05EC0AE
:1011700047C0662321F0613009F058C009C0EFE490
:10118000F0E080818F7B808380818F7780830895DA
:10119000EFE4F0E080818F7E808380818F7D80838B
:1011A0000895662321F0613009F040C009C0EFE4E2
:1011B000F0E080818064808380818F7780830895D0
:1011C000EFE4F0E080818061808380818F7D808387
:1011D0000895662319F0613049F509C0EFE4F0E0A5
:1011E00080818F7B80838081806880830895EFE495
:1011F000F0E080818F7E808380818062808308958B
:10120000662319F0613091F409C0EFE4F0E08081C9
:10121000806480838081806880830895EFE4F0E0BB
:10122000808180618083808180628083089526B57B
:1012300037B5822F932F08959BBD8ABD089599BD20
:1012400088BD089597BD86BD08959DBD8CBD089548
:101250008DE062E00E946D070895009721F0909361
:10126000DB078093DA0708951F920F920FB60F9253
:1012700011242F933F934F935F936F937F938F939B
:101280009F93AF93BF93EF93FF93E091DA07F091B1
:10129000DB070995FF91EF91BF91AF919F918F91DE
:1012A0007F916F915F914F913F912F910F900FBE62
:1012B0000F901F901895009721F09093D907809375
:1012C000D80708951F920F920FB60F9211242F93F3
:1012D0003F934F935F936F937F938F939F93AF93BE
:1012E000BF93EF93FF93E091D807F091D907099549
:1012F000FF91EF91BF91AF919F918F917F916F91EE
:101300005F914F913F912F910F900FBE0F901F90C3
:101310001895BC01009771F088EE93E00E947A2D39
:10132000862F972F009721F0019797BD86BD0895CE
:1013300017BC16BC0895009791F09C0140E050E066
:1013400060E472E48FE090E00E94A12DC901232B9C
:1013500021F0019797BD86BD089517BC16BC08956E
:1013600085369105D8F426B537B5BC0180E090E00C
:101370002F5F3F4F40E050E00E945B2D24E630E0BD
:1013800040E050E00E94A12D2230310528F0C90133
:1013900001979BBD8ABD08951BBC1ABC0895882384
:1013A00019F0813061F406C0EEE4F0E080818064E1
:1013B00080830895EEE4F0E080818F7B8083089540
:1013C000E9E5F0E08081806280830895E9E5F0E05E
:1013D00080818F7D808308958091D6079091D70773
:1013E000892B81F486B597B59093DD078093DC0750
:1013F00081E00E94CF0981E090E09093D70780932D
:10140000D60708958091D6079091D707019781F468
:1014100086B597B59093DF078093DE0780E00E9442
:10142000CF0982E090E09093D7078093D607089584
:101430008091D6079091D707029771F486B597B53A
:101440009093E1078093E0070E94E60983E090E033
:101450009093D7078093D6070895E9E5F0E080815F
:10146000846080830895E9E5F0E080818B7F80834C
:101470000895E9E5F0E08081806180830895E9E5E1
:10148000F0E080818F7E80830895E9E5F0E080813F
:10149000886080830895E9E5F0E08081877F80831C
:1014A00008959093D5078093D40708959093D30718
:1014B0008093D2070895EF92FF920F931F938C01B0
:1014C0007B0184E062E00E946D0780E060E00E94A2
:1014D000AF0880E061E00E94AF08015010401BBDE2
:1014E0000ABDC7010E94560A0E94390A1F910F9136
:1014F000FF90EF900895EF92FF920F931F938C014E
:101500007B0184E062E00E946D0780E060E00E9461
:10151000AF0880E061E00E94AF0888EE93E09C0194
:10152000029FC001039F900D129F900D11240197FF
:101530009BBD8ABDC7010E94560A0E94390A1F91AD
:101540000F91FF90EF9008959093D1078093D0076B
:101550000895CF92DF92EF92FF920F931F93CF9354
:10156000DF936C01EB011DBC1CBC8CEE99E00E946A
:10157000A40A80E00E94CF090E94E0091092D707D8
:101580001092D6078091D6079091D7070397D0F392
:101590006091DE077091DF072091DC073091DD0755
:1015A000E090E007F090E1074091DE075091DF07FF
:1015B000621B730B80E090E0E41AF50A00E010E093
:1015C000E60EF71E081F191F24E630E040E050E049
:1015D0000E945B2DA80197010E94A12D288360E441
:1015E00072E48FE090E0A80197010E94A12DF6011E
:1015F0002083318342835383DF91CF911F910F91D9
:10160000FF90EF90DF90CF9008959093CF07809355
:10161000CE070895813081F0813028F08230A9F022
:10162000833021F51BC0E3E5F0E08081877F808374
:1016300080818F7B80831AC0E3E5F0E08081806445
:1016400080838081877F808311C0E3E5F0E0808123
:101650008F7B808380818860808308C0E3E5F0E031
:10166000808180648083808188608083E3E5F0E00E
:101670008081887F80838081862B8083089581305C
:1016800081F0813028F08230A9F0833021F51BC031
:10169000E3E5F0E080818F7E808380818F7D808391
:1016A0000895E3E5F0E080818061808380818F7D13
:1016B00080830895E3E5F0E080818F7E80838081E0
:1016C000806280830895E3E5F0E08081806180831B
:1016D000808180628083089582BF08958CBF0895C1
:1016E000E3E5F0E08081806480838081886080838E
:1016F0008081806280838081806180838081807E20
:1017000080838081826080838FE30E946E0B12BE93
:10171000089582B70895009721F09093E50780938C
:10172000E40708951F920F920FB60F9211242F9382
:101730003F934F935F936F937F938F939F93AF9359
:10174000BF93EF93FF93E091E407F091E5070995CC
:10175000FF91EF91BF91AF919F918F917F916F9189
:101760005F914F913F912F910F900FBE0F901F905F
:101770001895982F853678F48FEF989FC001112423
:1017800064E670E00E947A2D623020F0862F81504E
:101790008CBF08951CBE0895E9E5F0E0808181606A
:1017A00080830895E9E5F0E080818E7F808308954D
:1017B000E9E5F0E08081826080830895E9E5F0E06A
:1017C00080818D7F808308959093E5078093E4075F
:1017D00008959093E3078093E20708959C01ECE35A
:1017E000F0E0808181FDFDCF3FBB2EBBECE3F0E05C
:1017F0008081816080838DB30895EF92FF920F9373
:101800001F93CF93DF93EC01ECE3F0E0808181FD47
:10181000FDCF41155105F9F020E030E00F2EFEE339
:10182000EF2EFF24F02DACE3B0E00DE310E0C90192
:101830008C0F9D1FF701918380838C9181608C9325
:10184000F8018081FB01E20FF31F80832F5F3F4F80
:101850002417350760F3DF91CF911F910F91FF900F
:10186000EF9008959C01ECE3F0E0808181FDFDCFD5
:101870003FBB2EBBECE3F0E08081816080838DB3C1
:10188000861739F06DBB808184608083808182609F
:1018900080830895EF92FF920F931F93CF93DF936E
:1018A0008C014115510551F120E030E0ACE3B0E08E
:1018B0000F2EFEE3EF2EFF24F02DCDE3D0E08C9130
:1018C00081FDFDCFC901800F911FF70191838083B6
:1018D0008C9181608C938881FB01E20FF31FE08182
:1018E0008E1739F0E8838C9184608C938C918260A0
:1018F0008C932F5F3F4F2417350708F3DF91CF916B
:101900001F910F91FF90EF900895ECE3F0E080813C
:10191000886080830895ECE3F0E08081877F808396
:1019200008959093E7078093E60708951F920F921A
:101930000FB60F9211242F933F934F935F936F93A2
:101940007F938F939F93AF93BF93EF93FF93E09118
:10195000E607F091E707309709F00995FF91EF91BD
:10196000BF91AF919F918F917F916F915F914F91B7
:101970003F912F910F900FBE0F901F9018959C01D3
:10198000CB01B9010E94FA2D08959C01CB01B90148
:101990000E94122E08950E940A2E08950E941C2E65
:1019A0000895E7E2F0E080818064808380818F7712
:1019B0008083808180628083A6E2B0E08C91816028
:1019C0008C938C9182608C938C918B7F8C938C9177
:1019D0008F7D8C938C91877F8C93E0E5F0E0808104
:1019E0008068808380818064808380818F7D808314
:1019F0008C9180688C930895E7E2F0E09081907E6E
:101A0000908390818770892B8083E6E2F0E080816B
:101A100080648083808184FFFDCFE6E2F0E08081F6
:101A20008061808325B130E040E050E0622F732F69
:101A3000842F952F0895E7E2F0E09081907E9083C7
:101A40009081892B8083E6E2F0E08081806480834E
:101A5000808184FFFDCF24B135B1822F932F08956B
:101A6000E6E2F0E08081886080830895E6E2F0E0BD
:101A70008081877F808308959093E9078093E807AA
:101A80000895E5E5F0E080818260808380818E7F2B
:101A90008083EBE5F0E0808180648083EFE5F0E017
:101AA0008081806880830895662329F49093EB07F2
:101AB0008093EA070895613029F49093ED078093AD
:101AC000EC070895623021F49093EF078093EE07BE
:101AD00008951F920F920FB60F9211242F933F93E8
:101AE0004F935F936F937F938F939F93AF93BF9326
:101AF000EF93FF93E091EA07F091EB07309709F03D
:101B00000995FF91EF91BF91AF919F918F917F9137
:101B10006F915F914F913F912F910F900FBE0F905A
:101B20001F9018951F920F920FB60F9211242F93AA
:101B30003F934F935F936F937F938F939F93AF9355
:101B4000BF93EF93FF93E091EC07F091ED0730978F
:101B500009F00995FF91EF91BF91AF919F918F91FE
:101B60007F916F915F914F913F912F910F900FBE99
:101B70000F901F9018951F920F920FB60F9211247D
:101B80002F933F934F935F936F937F938F939F9385
:101B9000AF93BF93EF93FF93E091EE07F091EF07C0
:101BA000309709F00995FF91EF91BF91AF919F9107
:101BB0008F917F916F915F914F913F912F910F90F6
:101BC0000FBE0F901F901895442309F042C081303A
:101BD000B1F0813030F0823001F1833009F078C00B
:101BE0002AC0EAE3F0E0208181E090E002C0880FA3
:101BF000991F6A95E2F78095822380830895E7E331
:101C0000F0E0208181E090E002C0880F991F6A9582
:101C1000E2F78095822380830895E4E3F0E0208159
:101C200081E090E002C0880F991F6A95E2F78095E5
:101C3000822380830895E1E3F0E0208181E090E059
:101C400002C0880F991F6A95E2F7809582238083EE
:101C50000895413009F03CC08130A1F0813028F076
:101C60008230E9F08330A1F527C0EAE3F0E020817B
:101C700081E090E002C0880F991F6A95E2F7282B57
:101C800020830895E7E3F0E0208181E090E002C046
:101C9000880F991F6A95E2F7282B20830895E4E3C3
:101CA000F0E0208181E090E002C0880F991F6A95E2
:101CB000E2F7282B20830895E1E3F0E0208181E022
:101CC00090E002C0880F991F6A95E2F7282B2083C5
:101CD0000895442309F042C08130B1F0813030F0E2
:101CE000823001F1833009F078C02AC0EBE3F0E0E4
:101CF000208181E090E002C0880F991F6A95E2F789
:101D00008095822380830895E8E3F0E0208181E0DC
:101D100090E002C0880F991F6A95E2F780958223B0
:101D200080830895E5E3F0E0208181E090E002C047
:101D3000880F991F6A95E2F7809582238083089522
:101D4000E2E3F0E0208181E090E002C0880F991F7B
:101D50006A95E2F78095822380830895413009F0E7
:101D60003CC08130A1F0813028F08230E9F083302E
:101D7000A1F527C0EBE3F0E0208181E090E002C014
:101D8000880F991F6A95E2F7282B20830895E8E3CE
:101D9000F0E0208181E090E002C0880F991F6A95F1
:101DA000E2F7282B20830895E5E3F0E0208181E02D
:101DB00090E002C0880F991F6A95E2F7282B2083D4
:101DC0000895E2E3F0E0208181E090E002C0880F16
:101DD000991F6A95E2F7282B20830895813089F0B6
:101DE000813030F08230B1F08330E9F080E0089546
:101DF00089B390E002C0959587956A95E2F7817066
:101E0000089586B390E002C0959587956A95E2F7AC
:101E10008170089583B390E002C0959587956A9587
:101E2000E2F78170089580B390E002C095958795A0
:101E30006A95E2F781700895813089F0813030F041
:101E40008230B1F08330E9F080E008958AB390E009
:101E500002C0959587956A95E2F78170089587B3DA
:101E600090E002C0959587956A95E2F78170089594
:101E700084B390E002C0959587956A95E2F78170EA
:101E8000089581B390E002C0959587956A95E2F731
:101E9000817008958130A1F0813028F08230E9F01E
:101EA0008330A1F527C0EBE3F0E0208181E090E0F2
:101EB00002C0880F991F6A95E2F7282720830895AA
:101EC000E8E3F0E0208181E090E002C0880F991FF4
:101ED0006A95E2F7282720830895E5E3F0E0208162
:101EE00081E090E002C0880F991F6A95E2F72827E9
:101EF00020830895E2E3F0E0208181E090E002C0D9
:101F0000880F991F6A95E2F728272083089581306A
:101F100049F0813028F0823039F0833041F406C036
:101F20006ABB089567BB089564BB089561BB0895BB
:101F3000813049F0813028F0823039F0833041F42B
:101F400006C06BBB089568BB089565BB089562BB6E
:101F500008950E94FC0C2EEE32E0AB01429FB001CE
:101F6000439F700D529F700D112480E090E00E94FD
:101F7000930320E030ED4FEB54E40E9463020E9493
:101F80008D009B01AC01862F932F08950E94D10CE8
:101F9000089528EE33E040E050E00E945B2D24EBF2
:101FA00030E040E050E00E94A12DDA01C9018851E3
:101FB0009C4F0E941F0908958DE062E00E946D070A
:101FC00082E060E00E94AF0808950F931F93CF93C3
:101FD000DF93082FEB0168810E94EE0E182F802FEF
:101FE00069810E94EE0E181711F480E009C0802F5D
:101FF00068810E94EE0E813011F082E001C081E024
:10200000DF91CF911F910F910895FF920F931F932E
:10201000F82E8B01FB01608140E00E94690E8F2D3C
:10202000F801618140E00E94690E1F910F91FF90BD
:102030000895FF920F931F93F82E8B01FB0160818F
:1020400040E00E94690E8F2DF801618141E00E94FD
:10205000690E1F910F91FF900895FB01608141E08F
:102060000E94690E089580E061E040E00E94690EE0
:10207000089580E061E041E00E94690E0895FB014F
:1020800060810E94E40D089580E061E041E00E94DB
:10209000E40D0895CF93DF93FC01EB01009711F459
:1020A00081E016C08081682F669566956695677099
:1020B00087700E94EE0E8883882321F0813029F0FA
:1020C00080E006C0188280E003C081E0888380E061
:1020D000DF91CF910895FC01009711F481E00895FC
:1020E0008081682F669566956695677087700E94F7
:1020F0004A0F80E00895FC01009711F481E00895F3
:102100008081682F6695669566956770877040E058
:102110000E94690E80E00895FC01009711F481E0AF
:1021200008958081682F66956695669567708770BB
:1021300041E00E94690E80E00895FC01009711F4CF
:1021400081E008958081682F669566956695677031
:10215000482F4295469546954370417087700E947E
:10216000E40D80E00895CF92DF92EF92FF920F93FB
:102170001F93CF93DF937C010F2EFBE2DF2EF02D18
:1021800000E0CC246894C2F881E0602F40E00E9417
:10219000690EE7011C2D81E0612F0E94EE0E88235D
:1021A00009F4D88081E0612F0E94EE0E8823D1F3DC
:1021B0001F5F2196183079F781E0602F41E00E947F
:1021C000690E0F5F84E090E0E80EF91E0430E1F63E
:1021D0008D2DDF91CF911F910F91FF90EF90DF90A8
:1021E000CF90089581E06FE00E94870F81E06FEF4C
:1021F0000E94980F08950F931F93182F83E066E0B5
:1022000041E00E94690E82E0612F0E94980F83E0F6
:1022100067E041E00E94690E00ED17E0C8010197F8
:10222000F1F783E067E040E00E94690EC801019782
:10223000F1F71F910F910895CF92DF92EF92FF92E5
:102240000F931F93CF93DF936B017C016115710591
:102250008105910579F1C1E0D0E08E01000F111FD9
:10226000CE01880F991F880F991F880F991F080F9B
:10227000191FC701B6012AE030E040E050E00E949B
:10228000A12DE801C60FD71FC701B6012AE030E033
:1022900040E050E00E94A12D822F932FA42FB52F54
:1022A0006C017D01C114D104E104F104B1F6C13027
:1022B000D10521F480E30E94FB1013C0CE016AE037
:1022C00070E00E948E2D805D0E94FB10CE016AE0BE
:1022D00070E00E948E2D862F972FEC01C130D10522
:1022E00069F7DF91CF911F910F91FF90EF90DF90F1
:1022F000CF9008950F931F93CF93DF938C01C0E08D
:10230000D0E007C0F801EC0FFD1F80810E94FB1098
:102310002196A02FB12FFD0101900020E9F7319700
:10232000EA1BFB0BCE17DF0768F3DF91CF911F91FC
:102330000F91089580E690E00E947A1108950F931E
:102340001F93182F83E066E040E00E94690E82E050
:10235000612F0E94980F83E067E041E00E94690EC0
:1023600000ED17E0C8010197F1F783E067E040E076
:102370000E94690EC8010197F1F71F910F9108950E
:102380000F931F93CF93DF938B01880F880F880FD4
:10239000805C0E949F11C0E0D0E0F801EC0FFD1FAF
:1023A00080810E94FB102196C830D105B1F7DF91E2
:1023B000CF911F910F9108956150823079F0833051
:1023C00018F48130C9F405C0833069F08430A1F479
:1023D0000FC0862F80580E949F110895862F805429
:1023E0000E949F110895862F80570E949F11089583
:1023F000862F80530E949F110895EF92FF920F93B2
:102400001F937B018C0183E690E00E947A11D80132
:10241000C701689413F8B695A79597958795169474
:10242000D1F7182F0E2D0F708A3048F481E063E049
:102430000E94DC11812F805D0E94FB1008C081E0AA
:1024400063E00E94DC11812F895C0E94FB100A303E
:1024500048F481E064E00E94DC11802F805D0E94DE
:10246000FB1008C081E064E00E94DC11802F895CD1
:102470000E94FB101F910F91FF90EF900895EF9233
:10248000FF920F931F93CF93DF93F82E8B01E42ECF
:10249000880F880F880F805C0E949F11C0E0D0E0F9
:1024A000F801EC0FFD1F80810E94FB102196C830BF
:1024B000D105B1F760E16F198E2D0E94DC118F2DCF
:1024C0000E94FB10DF91CF911F910F91FF90EF9031
:1024D0000895DF92EF92FF920F931F93CF93DF93B4
:1024E0007C01062FD42E662371F010E0C0E0D0E00E
:1024F000B7016C0F7D1F812F4D2D0E943F121F5F72
:1025000028961017A8F3DF91CF911F910F91FF909C
:10251000EF90DF90089582E06FEF0E94870F83E0D5
:1025200066E041E00E94E40D83E061E041E00E944A
:10253000E40D83E067E041E00E94E40D24EF31E028
:1025400048EC50E0CA010197F1F721503040D1F733
:1025500088E30E949F118CE00E949F1181E00E94FD
:102560009F1180ED97E00197F1F786E00E949F119F
:10257000089590E00E94B90B0895882339F08130C6
:1025800049F48FE590E00E94B90B089580E090E057
:102590000E94B90B089580E062E00E944A0F0895FE
:1025A00080E062E041E00E94E40D08959C0140E07B
:1025B00050E0220F331F441F551F220F331F441FAB
:1025C000551F220F331F441F551F220F331F441F57
:1025D000551F60E072E18AE790E00E94A12D215032
:1025E0003040E0E4F0E0308329B988E18AB986E838
:1025F00080830895982FEBE2F0E0808185FFFDCF86
:102600009CB90895EBE2F0E080818823ECF78CB16F
:1026100008958BB188236CF020E030E0EBE2F0E02D
:102620008081882334F02F5F3F4F8FE120343807BB
:10263000B9F78CB10895EF92FF920F931F93CF9348
:10264000DF93E62E662381F0F82E282F392FE9013B
:1026500000E21EE489910E94FA12C8010197F1F785
:102660009E012F192E15B0F3DF91CF911F910F917D
:10267000FF90EF900895EF92FF920F931F93CF93E7
:10268000DF93E62E662381F0F82E282F392FE901FB
:1026900000E21EE40E9402138993C8010197F1F73A
:1026A0009E012F192E15B0F3DF91CF911F910F913D
:1026B000FF90EF9008950E94230608950E9414064B
:1026C0000895AF92BF92CF92DF92EF92FF920F9355
:1026D0001F935B016C01611571058105910559F42A
:1026E00080E30E945E1351C081E0E816F104010509
:1026F000110559F54AC0EE24FF248701E394C8016F
:10270000B7012AE030E040E050E00E945B2D7B0101
:102710008C01C601B5010E94A12DE60EF71E081F0F
:10272000191FC601B5012AE030E040E050E00E94E8
:10273000A12D822F932FA42FB52F5C016D01A11421
:10274000B104C104D104D9F6CFCFC801B7012AE042
:1027500030E040E050E00E94A12D862F805D0E9475
:102760005E13C801B7012AE030E040E050E00E946B
:10277000A12D822F932FA42FB52F7C018D0181E0F5
:10278000E816F1040105110501F71F910F91FF9063
:10279000EF90DF90CF90BF90AF9008950E941C06FD
:1027A000089583E060E040E00E94E40D83E061E092
:1027B00041E00E94E40D0E9401060895EF92FF920D
:1027C0001F93CF93DF9381E066E00E94DC1186E6E1
:1027D00090E00E947A1110E00F2EF8EEEF2EF3E059
:1027E000FF2EF02DC8ECD0E082E067E00E94DC1103
:1027F00081E00E94FB1082E06AE00E94DC1181E02F
:102800000E94FB109701CE010197F1F72150304053
:10281000D1F782E067E00E94DC1180E00E94FB10AB
:1028200082E06AE00E94DC1180E00E94FB109701C8
:10283000CE010197F1F721503040D1F71F5F1530DD
:1028400099F681E00E949F11DF91CF911F91FF9037
:10285000EF900895EF92FF920F931F9380E00E94F4
:10286000FC0C7B018C0181E061E00E94DC118DE6B3
:1028700090E00E947A11C801B70124EF31E040E0F6
:1028800050E00E945B2D672F782F892F99276F5F6B
:102890007F4F80E090E00E941C1182E00E94FB10BC
:1028A0001F910F91FF90EF90089580E49CE90E94A2
:1028B000220920ED37E048EC50E0CA010197F1F71A
:1028C00021503040D1F7089580E49CE90E9422090C
:1028D00080ED97E00E941C0920ED37E048EC50E0C5
:1028E000CA010197F1F721503040D1F780EA9FE00B
:1028F0000E941C0920ED37E048EC50E0CA01019726
:10290000F1F721503040D1F7089580ED97E00E9413
:102910001C0920ED37E048EC50E0CA010197F1F7BF
:1029200021503040D1F780EA9FE00E941C0920ED41
:1029300037E048EC50E0CA010197F1F721503040F0
:10294000D1F708950E94DC0F80E090E00E942209F8
:10295000089580E00E94FC0C24EF31E040E050E05C
:102960000E945B2D672F782F892F99276F5F7F4FEC
:102970006631710538F0862F8B51863128F40E941C
:10298000391008950E9433100895DF93CF930F926A
:10299000CDB7DEB7982F81E08983913009F45FC00D
:1029A000913008F48DC0923009F0D6C085E790E0F0
:1029B0006DE070E00E941B1382E890E06CE070E034
:1029C0000E941B138EE890E06EE070E00E941B13E3
:1029D0008CE990E061E170E00E941B138DEA90E0C9
:1029E00065E170E00E941B1382EC90E06CE070E007
:1029F0000E941B130E942A140E94A9140E9409130A
:102A0000898389818333B1F0843328F4813351F091
:102A1000823381F70BC08533A9F0853378F0863394
:102A200049F714C08AE18093060896C08BE1809331
:102A3000060892C08CE1809306088EC08DE18093D9
:102A400006088AC08EE18093060886C081E00E9455
:102A50009F111092F20785E1809306087DC085E7FB
:102A600090E06DE070E00E941B1382E890E06CE063
:102A700070E00E941B138EEC90E06CE070E00E940E
:102A80001B130E942A140E94A9140E94091389830F
:102A90008981823341F0833351F0813391F78FE1A3
:102AA0008093060859C080E28093060855C081E0F3
:102AB0000E949F111092F20785E1809306084CC096
:102AC00081E061E00E94DC118AED90E00E947A11C1
:102AD00082E061E00E94DC1185EE90E00E947A11B4
:102AE00083E061E00E94DC118FEE90E00E947A1199
:102AF0008091FB078333D1F0843328F4813341F094
:102B0000823351F50CC0833409F1823529F517C0A1
:102B100081E00E949F1183E0809306081DC081E040
:102B20000E949F1182E08093060816C081E00E94F7
:102B30009F111092F20785E1809306080DC081E095
:102B40000E949F1181E08093060806C081E00E94E8
:102B50009F1181E080930608809106080F90CF9125
:102B6000DF910895DF93CF930F92CDB7DEB7982F03
:102B700081E08983913009F44EC0913008F487C018
:102B8000923009F0CEC089EF90E06BE070E00E94D7
:102B90001B1384E091E06CE070E00E941B1380E165
:102BA00091E068E070E00E941B1388E191E06AE028
:102BB00070E00E941B130E942A140E94A9140E9414
:102BC000091389838981823391F0833328F4803318
:102BD000D1F0813381F707C0843389F0843358F012
:102BE000833449F714C081E2809306089AC082E2D8
:102BF0008093060896C083E28093060892C084E220
:102C0000809306088EC088E1809306088AC088E118
:102C10008093060886C089EF90E06BE070E00E9428
:102C20001B1384E091E06CE070E00E941B1380E1D4
:102C300091E068E070E00E941B130E942A140E9439
:102C4000A9140E94091389838981823381F0833317
:102C500028F48033A1F0813381F705C0833359F024
:102C6000833459F710C089E2809306085AC08AE27B
:102C70008093060856C08BE28093060852C089E113
:102C8000809306084EC089E1809306084AC081E01F
:102C900061E00E94DC1182E291E00E947A1182E000
:102CA00061E00E94DC118BE291E00E947A1183E0E6
:102CB00061E00E94DC1185E391E00E947A1180912D
:102CC000FB078333D1F0843328F4813341F082331E
:102CD00041F50CC08334F9F0823519F515C081E057
:102CE0000E949F1188E0809306081BC081E00E942B
:102CF0009F1189E08093060814C081E00E949F1113
:102D00008AE0809306080DC081E00E949F1181E057
:102D10008093060806C081E00E949F1181E08093A5
:102D20000608809106080F90CF91DF910895DF93F8
:102D3000CF930F92CDB7DEB71982813009F44EC020
:102D4000813008F493C0823009F0EBC089EF90E045
:102D50006BE070E00E941B1384E091E06CE070E097
:102D60000E941B1380E191E068E070E00E941B1359
:102D700088E191E06AE070E00E941B130E942A142F
:102D80000E94A9140E94091389838981823391F0DA
:102D9000833328F48033D1F0813381F707C0843343
:102DA00089F0843358F0833449F714C085E2809366
:102DB0000608B7C086E280930608B3C087E2809316
:102DC0000608AFC088E280930608ABC088E1809314
:102DD0000608A7C088E180930608A3C089EF90E0A9
:102DE0006BE070E00E941B1384E091E06CE070E007
:102DF0000E941B1380E191E068E070E00E941B13C9
:102E000088E191E06AE070E00E941B130E942A149E
:102E10000E94A9140E94091389838981823391F049
:102E2000833328F48033D1F0813381F707C08433B2
:102E300089F0843358F0833449F714C08CE28093CE
:102E400006086FC08DE2809306086BC08EE2809307
:102E5000060867C08FE28093060863C089E180930B
:102E600006085FC089E1809306085BC081E061E0ED
:102E70000E94DC1182E291E00E947A1182E061E01E
:102E80000E94DC118BE391E00E947A1183E061E003
:102E90000E94DC1185E391E00E947A1184E061E0F8
:102EA0000E94DC1183E491E00E947A118091FB077B
:102EB0008333E1F0843328F4813351F0823389F590
:102EC0000EC0833441F18235F9F0843351F515C0D9
:102ED00081E00E949F1184E08093060822C081E077
:102EE0000E949F1185E0809306081BC081E00E942C
:102EF0009F1186E08093060814C081E00E949F1114
:102F000087E0809306080DC081E00E949F1181E058
:102F10008093060806C081E00E949F1181E08093A3
:102F20000608809106080F90CF91DF910895DF93F6
:102F3000CF930F92CDB7DEB71982813009F45AC012
:102F4000813008F4B0C0823009F019C18DE491E0FD
:102F500067E070E00E941B1384E591E067E070E099
:102F60000E941B138BE591E067E070E00E941B1349
:102F700082E691E067E070E00E941B1389E691E031
:102F800067E070E00E941B130E942A140E94A9149B
:102F90000E940913898389818333C1F0843338F413
:102FA000813361F0823370F4803371F71BC0853355
:102FB000A9F0853378F0833439F718C080E3809323
:102FC0000608DDC081E380930608D9C082E38093C0
:102FD0000608D5C083E380930608D1C084E38093BC
:102FE0000608CDC08AE180930608C9C088E18093B5
:102FF0000608C5C08DE491E067E070E00E941B13F5
:1030000084E591E067E070E00E941B138BE591E09E
:1030100067E070E00E941B1382E691E067E070E0D9
:103020000E941B1389E691E067E070E00E941B1389
:103030000E940213898333C00E942A140E94A9149B
:1030400089818333C1F0843338F4813361F0823372
:1030500070F4803321F51BC08533A9F0853378F0F7
:103060008334E9F418C08AE38093060888C08BE3B0
:103070008093060884C08CE38093060880C08DE3AB
:10308000809306087CC08EE38093060878C08FE1A9
:103090008093060874C089E18093060870C0898116
:1030A000882351F66CC081E061E00E94DC1180E76A
:1030B00091E00E947A1182E061E00E94DC1186E7D3
:1030C00091E00E947A1183E061E00E94DC118CE7BC
:1030D00091E00E947A1184E061E00E94DC1182E8B4
:1030E00091E00E947A1181E068E00E94DC1188E89A
:1030F00091E00E947A118091FB07843329F1853396
:1031000038F4823399F08333C0F48133C1F507C0BA
:10311000833479F1823531F1853389F51CC081E042
:103120000E949F118BE08093060829C081E00E94D5
:103130009F118CE08093060822C081E00E949F11BD
:103140008DE0809306081BC081E00E949F118EE0F5
:103150008093060814C081E00E949F118FE0809345
:1031600006080DC081E00E949F1183E0809306084D
:1031700006C081E00E949F1181E080930608809143
:1031800006080F90CF91DF910895DF93CF930F92B0
:10319000CDB7DEB71982813009F44CC0813008F414
:1031A0008FC0823009F0D5C08EE891E06FE070E00A
:1031B0000E941B138DE991E06CE070E00E941B13EC
:1031C0000E942A140E94A9140E94091389838981EC
:1031D000813351F0823318F4803391F723C0823366
:1031E00091F0833469F722C080E060E040E00E9403
:1031F000E40D80E062EB77E041E00E943F1083E263
:1032000080930608A6C080E062EB77E040E00E9471
:103210003F1080E060E041E00E94E40D83E2809393
:10322000060897C08AE18093060893C088E18093DE
:1032300006088FC08EE891E06FE070E00E941B13DB
:103240008DE991E06CE070E00E941B130E942A144B
:103250000E94A9140E94091389838981813351F046
:10326000823318F4803391F723C0823391F0833492
:1032700069F722C080E060E040E00E94E40D80E059
:1032800062EB77E041E00E943F108BE280930608FA
:1032900060C080E062EB77E040E00E943F1080E099
:1032A00060E041E00E94E40D8BE28093060851C08B
:1032B0008FE1809306084DC089E18093060849C0DC
:1032C00081E061E00E94DC1189EA91E00E947A11BC
:1032D00082E061E00E94DC1187EB91E00E947A11AC
:1032E0008091FB078233C9F0833318F4813389F569
:1032F00005C0833441F1823561F51EC080E060E095
:1033000040E00E94E40D80E062EB77E041E00E9443
:103310003F108AE0809306081CC080E062EB77E0F3
:1033200040E00E943F1080E060E041E00E94E40D38
:103330008AE0809306080DC081E00E949F1183E01F
:103340008093060806C081E00E949F1181E080936F
:103350000608809106080F90CF91DF910895DF93C2
:10336000CF930F92CDB7DEB71982813009F45AC0DE
:10337000813008F4ABC0823009F014C18DE491E0D3
:1033800067E070E00E941B1384E591E067E070E065
:103390000E941B138BE591E067E070E00E941B1315
:1033A00082E691E067E070E00E941B1389E691E0FD
:1033B00067E070E00E941B130E942A140E94A91467
:1033C0000E940913898389818333C1F0843338F4DF
:1033D000813361F0823370F4803371F71BC0853321
:1033E000A9F0853378F0833439F718C085E38093EA
:1033F0000608D8C086E380930608D4C087E380938C
:103400000608D0C088E380930608CCC089E3809387
:103410000608C8C08BE180930608C4C088E1809389
:103420000608C0C08DE491E067E070E00E941B13C5
:1034300084E591E067E070E00E941B138BE591E06A
:1034400067E070E00E941B1382E691E067E070E0A5
:103450000E941B1389E691E067E070E00E941B1355
:103460000E942A140E94A9140E9409138983898149
:103470008333C1F0843338F4813361F0823370F4E4
:10348000803371F71BC08533A9F0853378F083341E
:1034900039F718C08FE38093060884C080E48093D6
:1034A000060880C081E4809306087CC082E4809393
:1034B000060878C083E48093060874C080E2809395
:1034C000060870C089E1809306086CC081E061E065
:1034D0000E94DC1180E791E00E947A1182E061E0B5
:1034E0000E94DC1186E791E00E947A1183E061E09E
:1034F0000E94DC118CE791E00E947A1184E061E087
:103500000E94DC1182E891E00E947A1181E068E07B
:103510000E94DC1188E891E00E947A118091FB07FB
:10352000843329F1853338F4823399F08333C0F43E
:103530008133C1F507C0833479F1823531F18533A8
:1035400089F51CC081E00E949F1180E180930608EC
:1035500029C081E00E949F1181E18093060822C06A
:1035600081E00E949F1182E1809306081BC081E0E8
:103570000E949F1183E18093060814C081E00E949D
:103580009F1184E1809306080DC081E00E949F1185
:1035900082E08093060806C081E00E949F1181E0CE
:1035A00080930608809106080F90CF91DF910895CF
:1035B000DF93CF930F92CDB7DEB71982813081F1BF
:1035C000813008F45CC0823009F085C083E064E09B
:1035D0000E94EE0E882349F0813069F482EC91E07C
:1035E0006EE070E00E941B1306C080ED91E06FE07A
:1035F00070E00E941B130E942A140E94A9140E94CA
:10360000091389838981803319F08334A1F704C0B9
:103610008BE1809306085FC088E1809306085BC059
:1036200083E064E00E94EE0E882349F0813069F463
:1036300082EC91E06EE070E00E941B1306C080ED0A
:1036400091E06FE070E00E941B130E9402138983D7
:1036500012C00E942A140E94A9148981803319F093
:10366000833449F404C080E28093060834C089E1C1
:103670008093060830C08981882359F72CC083E0E5
:1036800064E00E94EE0E882359F0813089F481E0D5
:1036900061E00E94DC118FED91E00E947A1108C078
:1036A00081E061E00E94DC118CEE91E00E947A11D1
:1036B0008091FB07833449F0823569F481E00E94F0
:1036C0009F1182E08093060806C081E00E949F114E
:1036D00081E080930608809106080F90CF91DF91DA
:1036E0000895DF93CF930F92CDB7DEB71982813063
:1036F000B9F1813008F46AC0823009F09CC083E0DF
:1037000061E00E941C0F882349F0813071F48AEF38
:1037100091E06BE070E00E941B130DC088E092E026
:103720006AE070E00E941B1306C088E092E06AE045
:1037300070E00E941B130E942A140E94A9140E9488
:10374000091389838981803319F08334A1F704C078
:103750008BE1809306086FC088E1809306086BC0F8
:1037600083E061E00E941C0F882349F0813071F4EE
:103770008AEF91E06BE070E00E941B130DC088E0BF
:1037800092E06AE070E00E941B1306C088E092E0BD
:103790006AE070E00E941B130E940213898312C02A
:1037A0000E942A140E94A9148981803319F083345D
:1037B00049F404C080E2809306083DC089E180930B
:1037C000060839C08981882359F735C083E061E054
:1037D0000E941C0F882359F0813091F481E061E050
:1037E0000E94DC1183E192E00E947A1111C081E015
:1037F00061E00E94DC1180E292E00E947A1108C030
:1038000081E061E00E94DC1180E292E00E947A1186
:103810008091FB07833449F0823569F481E00E948E
:103820009F1182E08093060806C081E00E949F11EC
:1038300081E080930608809106080F90CF91DF9178
:103840000895DF93CF930F92CDB7DEB71982813001
:1038500091F1813008F460C0823009F08BC083E0C0
:1038600065E00E94EE0E89838981882349F08130CA
:1038700069F48AE292E06EE070E00E941B1306C0D9
:1038800088E392E060E170E00E941B130E942A141A
:103890000E94A9140E94091389838981803319F039
:1038A0008334A1F704C08BE18093060863C088E1EC
:1038B000809306085FC083E065E00E941C0F898347
:1038C0008981882349F0813069F48AE292E06EE0D0
:1038D00070E00E941B1306C088E392E06AE070E08B
:1038E0000E941B130E940213898312C00E942A1493
:1038F0000E94A9148981803319F0833449F404C0EB
:1039000080E28093060836C089E18093060832C0C1
:103910008981882359F72EC083E065E00E941C0F3F
:1039200089838981882359F0813089F481E061E0BD
:103930000E94DC1188E492E00E947A1108C081E0C4
:1039400061E00E94DC1185E592E00E947A1180918D
:10395000FB07833449F0823569F481E00E949F11AE
:1039600082E08093060806C081E00E949F1181E0FA
:1039700080930608809106080F90CF91DF910895FB
:10398000DF93CF930F92CDB7DEB719828130F1F17B
:10399000813008F478C0823009F0B0C084E692E04B
:1039A0006EE070E00E941B1382E792E06FE070E02F
:1039B0000E941B130E942A140E94A9140E9409133A
:1039C00089838981813351F0823318F4803391F7F0
:1039D00015C0823359F0833469F714C084EB97E043
:1039E0000E948C1080E38093060888C084EB97E0E7
:1039F0000E947B1080E38093060880C081E2809360
:103A000006087CC088E18093060878C084E692E0CE
:103A10006EE070E00E941B1382E792E06FE070E0BE
:103A20000E941B130E940213898329C00E942A143A
:103A30000E94A9148981813351F0823318F48033B4
:103A4000F1F415C0823359F08334C9F414C084EB07
:103A500097E00E948C108AE3809306084FC084EBA5
:103A600097E00E947B108AE38093060847C089E2B2
:103A70008093060843C089E1809306083FC089818E
:103A80008823A1F63BC081E061E00E94DC1181E85F
:103A900092E00E947A1182E061E00E94DC118DE8E0
:103AA00092E00E947A118091FB07823391F0833378
:103AB00018F4813319F505C08334D1F08235F1F45F
:103AC00010C084EB97E00E948C108BE08093060876
:103AD00015C084EB97E00E947B108BE08093060872
:103AE0000DC081E00E949F1188E08093060806C007
:103AF00081E00E949F1181E0809306088091060872
:103B00000F90CF91DF910895DF93CF930F92CDB7B0
:103B1000DEB719828130F1F1813008F473C0823050
:103B200009F0ABC08AE992E06EE070E00E941B13DE
:103B300088EA92E06FE070E00E941B130E942A1452
:103B40000E94A9140E94091389838981813351F04D
:103B5000823318F4803391F715C0823359F08334DF
:103B600069F714C085EB97E00E948C1081E3809385
:103B7000060883C085EB97E00E947B1081E3809369
:103B800006087BC081E28093060877C088E18093B5
:103B9000060873C08AE992E06EE070E00E941B1391
:103BA00088EA92E06FE070E00E941B130E942A14E2
:103BB0000E94A9140E94091389838981813351F0DD
:103BC000823318F4803391F715C0823359F083346F
:103BD00069F714C085EB97E00E948C108BE380930B
:103BE00006084BC085EB97E00E947B108BE3809327
:103BF000060843C089E2809306083FC089E18093AC
:103C000006083BC081E061E00E94DC1187EB92E096
:103C10000E947A1182E061E00E94DC1183EC92E064
:103C20000E947A118091FB07823391F0833318F45C
:103C3000813319F505C08334D1F08235F1F410C019
:103C400085EB97E00E948C108BE08093060815C0EE
:103C500085EB97E00E947B108BE0809306080DC0F7
:103C600081E00E949F1188E08093060806C081E0F1
:103C70000E949F1181E080930608809106080F90B2
:103C8000CF91DF910895DF93CF930F92CDB7DEB739
:103C900019828130F1F1813008F473C0823009F06B
:103CA000ABC080ED92E06EE070E00E941B138EEDE1
:103CB00092E06FE070E00E941B130E942A140E94A1
:103CC000A9140E94091389838981813351F08233B9
:103CD00018F4803391F715C0823359F0833469F7B3
:103CE00014C086EB97E00E948C1082E38093060854
:103CF00083C086EB97E00E947B1082E380930608E6
:103D00007BC081E28093060877C088E18093060833
:103D100073C080ED92E06EE070E00E941B138EEDA8
:103D200092E06FE070E00E941B130E942A140E9430
:103D3000A9140E94091389838981813351F0823348
:103D400018F4803391F715C0823359F0833469F742
:103D500014C086EB97E00E948C108CE380930608D9
:103D60004BC086EB97E00E947B108CE380930608A3
:103D700043C089E2809306083FC089E1809306082A
:103D80003BC081E061E00E94DC118DEE92E00E9478
:103D90007A1182E061E00E94DC1189EF92E00E94DA
:103DA0007A118091FB07823391F0833318F48133C9
:103DB00019F505C08334D1F08235F1F410C086EBDB
:103DC00097E00E948C108BE08093060815C086EB6C
:103DD00097E00E947B108BE0809306080DC081E085
:103DE0000E949F1188E08093060806C081E00E942F
:103DF0009F1181E080930608809106080F90CF9173
:103E0000DF910895DF93CF930F92CDB7DEB719827C
:103E10008130F1F1813008F473C0823009F0ABC019
:103E200086E093E06EE070E00E941B1384E193E073
:103E30006FE070E00E941B130E942A140E94A914D4
:103E40000E94091389838981813351F0823318F4E8
:103E5000803391F715C0823359F0833469F714C069
:103E600087EB97E00E948C1083E38093060883C061
:103E700087EB97E00E947B1083E3809306087BC06A
:103E800081E28093060877C088E18093060873C0BA
:103E900086E093E06EE070E00E941B1384E193E003
:103EA0006FE070E00E941B130E942A140E94A91464
:103EB0000E94091389838981813351F0823318F478
:103EC000803391F715C0823359F0833469F714C0F9
:103ED00087EB97E00E948C108DE3809306084BC01F
:103EE00087EB97E00E947B108DE38093060843C028
:103EF00089E2809306083FC089E1809306083BC0B1
:103F000081E061E00E94DC1183E293E00E947A117B
:103F100082E061E00E94DC118FE293E00E947A115E
:103F20008091FB07823391F0833318F4813319F5C4
:103F300005C08334D1F08235F1F410C087EB97E0EF
:103F40000E948C108BE08093060815C087EB97E0E9
:103F50000E947B108BE0809306080DC081E00E94D8
:103F60009F1188E08093060806C081E00E949F119F
:103F700081E080930608809106080F90CF91DF9131
:103F80000895DF93CF930F92CDB7DEB719828130BA
:103F9000F1F1813008F473C0823009F0ABC08CE3DA
:103FA00093E06EE070E00E941B138AE493E06FE000
:103FB00070E00E941B130E942A140E94A9140E9400
:103FC000021389838981813351F0823318F480335D
:103FD00091F715C0823359F0833469F714C088EB28
:103FE00097E00E948C1084E38093060883C088EBDE
:103FF00097E00E947B1084E3809306087BC081E2F7
:104000008093060877C088E18093060873C08CE32C
:1040100093E06EE070E00E941B138AE493E06FE08F
:1040200070E00E941B130E942A140E94A9140E948F
:10403000091389838981813351F0823318F48033E5
:1040400091F715C0823359F0833469F714C088EBB7
:1040500097E00E948C108EE3809306084BC088EB9B
:1040600097E00E947B108EE38093060843C089E2AC
:10407000809306083FC089E1809306083BC081E039
:1040800061E00E94DC1189E593E00E947A1182E0F0
:1040900061E00E94DC1185E693E00E947A11809134
:1040A000FB07823391F0833318F4813319F505C08F
:1040B0008334D1F08235F1F410C088EB97E00E9490
:1040C0008C108BE08093060815C088EB97E00E9467
:1040D0007B108BE0809306080DC081E00E949F1149
:1040E00088E08093060806C081E00E949F1181E06D
:1040F00080930608809106080F90CF91DF91089574
:104100001F93DF93CF9300D0CDB7DEB7182F19825E
:104110001A8284EB97E0BE016E5F7F4F0E944A10C7
:10412000113071F1113008F453C0123009F07AC027
:104130008A81882319F0813071F407C082E793E007
:104140006EE070E00E941B1306C081E893E06FE010
:1041500070E00E941B130E942A140E94A9140E945E
:10416000091389838981803319F08334A1F704C04E
:1041700085E28093060856C088E18093060852C005
:104180008A81882319F0813071F407C082E793E0B7
:104190006EE070E00E941B1306C081E893E06FE0C0
:1041A00070E00E941B130E942A140E94A9140E940E
:1041B000091389838981803319F08334A1F704C0FE
:1041C0008CE2809306082EC089E1809306082AC0FD
:1041D0008A81882319F0813091F409C081E061E07F
:1041E0000E94DC118FE893E00E947A1108C081E000
:1041F00061E00E94DC118CE993E00E947A118091C9
:10420000FB07833449F0823569F481E00E949F11F5
:1042100084E08093060806C081E00E949F1181E03F
:1042200080930608809106080F900F90CF91DF9140
:104230001F9108951F93DF93CF9300D0CDB7DEB7C2
:10424000182F19821A8285EB97E0BE016E5F7F4FAF
:104250000E944A10113071F1113008F453C012302D
:1042600009F07AC08A81882319F0813071F407C07F
:1042700088EA93E06EE070E00E941B1306C087EBB3
:1042800093E06FE070E00E941B130E942A140E94CA
:10429000A9140E94091389838981803319F083341A
:1042A000A1F704C085E28093060856C088E1809398
:1042B000060852C08A81882319F0813071F407C042
:1042C00088EA93E06EE070E00E941B1306C087EB63
:1042D00093E06FE070E00E941B130E942A140E947A
:1042E000A9140E94091389838981803319F08334CA
:1042F000A1F704C08CE2809306082EC089E1809368
:1043000006082AC08A81882319F0813091F409C0F7
:1043100081E061E00E94DC1185EC93E00E947A115B
:1043200008C081E061E00E94DC1182ED93E00E9410
:104330007A118091FB07833449F0823569F481E07A
:104340000E949F1184E08093060806C081E00E94CD
:104350009F1181E080930608809106080F900F90CE
:10436000CF91DF911F9108951F93DF93CF9300D0DA
:10437000CDB7DEB7182F19821A8286EB97E0BE01FF
:104380006E5F7F4F0E944A10113071F1113008F4B6
:1043900053C0123009F07AC08A81882319F0813025
:1043A00071F407C08EED93E06EE070E00E941B1385
:1043B00006C08DEE93E06FE070E00E941B130E9438
:1043C0002A140E94A9140E940913898389818033C9
:1043D00019F08334A1F704C085E28093060856C023
:1043E00088E18093060852C08A81882319F08130C1
:1043F00071F407C08EED93E06EE070E00E941B1335
:1044000006C08DEE93E06FE070E00E941B130E94E7
:104410002A140E94A9140E94091389838981803378
:1044200019F08334A1F704C08CE2809306082EC0F3
:1044300089E1809306082AC08A81882319F0813097
:1044400091F409C081E061E00E94DC118BEF93E000
:104450000E947A1108C081E061E00E94DC1188E0CE
:1044600094E00E947A118091FB07833449F08235F1
:1044700069F481E00E949F1184E08093060806C0E1
:1044800081E00E949F1181E08093060880910608D8
:104490000F900F90CF91DF911F9108951F93DF939D
:1044A000CF9300D0CDB7DEB7182F19821A8287EBD1
:1044B00097E0BE016E5F7F4F0E944A10113071F18C
:1044C000113008F453C0123009F07AC08A81882371
:1044D00019F0813071F407C084E194E06EE070E07F
:1044E0000E941B1306C083E294E06FE070E00E941C
:1044F0001B130E942A140E94A9140E940913898385
:104500008981803319F08334A1F704C085E2809358
:10451000060856C088E18093060852C08A81882325
:1045200019F0813071F407C084E194E06EE070E02E
:104530000E941B1306C083E294E06FE070E00E94CB
:104540001B130E942A140E94A9140E940913898334
:104550008981803319F08334A1F704C08CE2809301
:1045600006082EC089E1809306082AC08A81882324
:1045700019F0813091F409C081E061E00E94DC1102
:1045800081E394E00E947A1108C081E061E00E941A
:10459000DC118EE394E00E947A118091FB07833452
:1045A00049F0823569F481E00E949F1184E0809394
:1045B000060806C081E00E949F1181E080930608F2
:1045C000809106080F900F90CF91DF911F91089571
:1045D0001F93DF93CF9300D0CDB7DEB7182F19828A
:1045E0001A8288EB97E0BE016E5F7F4F0E944A10EF
:1045F000113071F1113008F453C0123009F07AC053
:104600008A81882319F0813071F407C08AE494E02C
:104610006EE070E00E941B1306C089E594E06FE035
:1046200070E00E941B130E942A140E94A9140E9489
:10463000091389838981803319F08334A1F704C079
:1046400085E28093060856C088E18093060852C030
:104650008A81882319F0813071F407C08AE494E0DC
:104660006EE070E00E941B1306C089E594E06FE0E5
:1046700070E00E941B130E942A140E94A9140E9439
:10468000091389838981803319F08334A1F704C029
:104690008CE2809306082EC089E1809306082AC028
:1046A0008A81882319F0813091F409C081E061E0AA
:1046B0000E94DC1187E694E00E947A1108C081E034
:1046C00061E00E94DC1184E794E00E947A118091FD
:1046D000FB07833449F0823569F481E00E949F1121
:1046E00084E08093060806C081E00E949F1181E06B
:1046F00080930608809106080F900F90CF91DF916C
:104700001F910895AF92BF92CF92DF92EF92FF92E6
:104710000F931F93CF93DF93E6E2F0E080818064F4
:104720008083E08182E00E94FC0C24B1982F872FC7
:10473000762F66277B018C01E20EF11C011D111DF5
:1047400080E090E00E942509E114F10401051105C3
:1047500001F1C0E0D0E00F2EF6E2CF2EDD24F02DE7
:104760000F2EF0EAAF2EFFE0BF2EF02DF601808174
:1047700084FD06C0CE010E941F09C5010197F1F713
:104780002196CE01A0E0B0E08E159F05A007B107ED
:1047900068F320E23EE448EC50E0CA010197F1F7EB
:1047A00021503040D1F7DF91CF911F910F91FF90B1
:1047B000EF90DF90CF90BF90AF900895DF93CF93AD
:1047C0000F92CDB7DEB719828130E1F1813008F464
:1047D0006FC0823009F0A5C080E894E06FE070E01F
:1047E0000E941B138FE894E060E170E00E941B13AD
:1047F0000E942A140E94A9140E94091389838981A6
:10480000813351F0823318F4803391F713C082332F
:1048100049F0833469F712C00E94822382E28093B8
:1048200006087FC080E090E00E941F0982E280932A
:10483000060877C08AE18093060873C088E18093F8
:1048400006086FC080E894E06FE070E00E941B13E0
:104850008FE894E060E170E00E941B130E942A142C
:104860000E94A9140E94091389838981813351F020
:10487000823318F4803391F713C0823349F08334C4
:1048800069F712C00E9482238AE28093060849C019
:1048900080E090E00E941F098AE28093060841C0F0
:1048A0008FE1809306083DC089E18093060839C0F6
:1048B00081E061E00E94DC118FE994E00E947A11AE
:1048C00082E061E00E94DC118DEA94E00E947A119E
:1048D0008091FB07823381F0833318F4813309F52B
:1048E00005C08334C1F08235E1F40EC00E948223FA
:1048F00089E08093060815C080E090E00E941F09BF
:1049000089E0809306080DC081E00E949F1183E03A
:104910008093060806C081E00E949F1181E0809389
:104920000608809106080F90CF91DF910895CF93EC
:10493000DF9389E990E00E94CB0C8F3F09F04FC0D4
:1049400082E061E00E94DC118CEB94E00E947A111D
:1049500084E06EE00E94DC118DEC94E00E947A11FC
:1049600081ED94E06BE070E00E941B138DED94E00C
:104970006EE070E00E941B138CEE94E062E170E048
:104980000E941B138EEF94E06AE070E00E941B13FC
:104990000E940213682F60536A30D0F782E390E0E0
:1049A0000E941C2E88E095E069E070E00E941B13D5
:1049B000C3E3D0E00E940213682F60536A30D0F73F
:1049C000CE010E941C2E2196C733D10599F789E9A3
:1049D00090E06AEA0E94CE0C88E18093060881E0AC
:1049E0000E949F11DF91CF91089580E092E060E0F6
:1049F0000E94CE0C0E94CB1280E092E00E94CB0C71
:104A0000882309F581E00E949F1181E195E00E94D1
:104A10007A1182E061E00E94DC118FE195E00E9452
:104A20007A112FEF3FEF48EC50E0CA010197F1F700
:104A300021503040D1F780E092E06FEF0E94CE0C21
:104A400081E00E949F110E94CB1208952F923F9205
:104A50004F925F926F927F928F929F92AF92BF928E
:104A6000CF92DF92EF92FF920F931F93DF93CF933A
:104A700000D000D00F92CDB7DEB7182F81E00E9492
:104A80009F111092F107113009F4F0C0113020F09D
:104A9000123009F035C29DC181E061E00E94DC1155
:104AA0008FE295E00E947A110BE0CC24DD247601A0
:104AB0000F2EF9EBAF2EF7E0BF2EF02DC5010E94AF
:104AC000B310182F8B3281F080538A3068F4812F15
:104AD00090E0C0976C01EE24D7FCE094FE2CC70157
:104AE000B6010E941C110F5F0C3008F074C21B3419
:104AF00029F771C28091F1078F5F8093F107C80198
:104B00000E94CB0C90E0A0E0B0E08C159D05AE05B6
:104B1000BF05A1F40093F007332422240F2EF8ECF4
:104B2000CF2EDD24F02D3E010894611C711C0F2E48
:104B3000F9EB4F2EF7E05F2EF02D06C00B5F1F4FF5
:104B400009311105B9F6F6C181E00E949F118AE38F
:104B500095E00E947A116091F10770E080E090E0AA
:104B60000E941C1182E061E00E94DC1184E495E067
:104B70000E947A1119821A821B821C82F22C06E092
:104B8000C2010E94B310182F8B3221F180538A305A
:104B900008F5812F90E0C0974C01AA2497FCA094BF
:104BA000BA2CC501B4010E941C1128EE33E0C601E5
:104BB0000197F1F721503040D1F7F301EF0DF11DCE
:104BC00080820F5F82E0602F0E94DC118AE20E94E7
:104BD000FB10F3940A3008F0FBC11B3489F6F8C1CE
:104BE0000E2DF301EE0DFF1D10818091F00790E076
:104BF00001968E0D9F1D0E94CB0C181741F40F5F7C
:104C00000894E11CF11C84E0E816F10449F7043033
:104C100009F49AC181E00E949F118BE495E00E9403
:104C20007A1128E833E10DC0CA010197F1F721504C
:104C30003040D1F781E08093060883E0381681F494
:104C40000BC0C6010197F1F721503040D1F73394E2
:104C500083E0381609F078CF0E94F52410920608F8
:104C60001092F10781E00E949F114AC186E595E00C
:104C70006CE070E00E941B131BE0CC24DD24760165
:104C80000E940213282F8B3261F080538A3048F43F
:104C9000822F90E0C0976C01EE24D7FCE094FE2CAC
:104CA0001F5F1C3008F09CC12B3451F799C1802F35
:104CB00089518D838091F1078F5F8093F107C8013F
:104CC0000E94CB0C90E0A0E0B0E08C159D05AE05F5
:104CD000BF05E1F48D81875E8093F007CC240F2E11
:104CE000F2E68F2EF5E09F2EF02D0F2EFDE66F2EB3
:104CF000F5E07F2EF02D0F2EF6E05F2EF02D5E01F9
:104D00000894A11CB11C2224332406C00B5F1F4F42
:104D10000233110561F626C1C4016BE070E00E9408
:104D20001B138091F10790E0C0960E94FA12109236
:104D3000F107C30167E070E00E941B1319821A8219
:104D40001B821C8200E0152D0E940213982F8B32CB
:104D500049F080538A3030F4F501E00FF11D908363
:104D60001F5F0F5F1A3008F039C19B3469F736C1F5
:104D7000DE2CF501EE0DFF1D008110E00053104008
:104D80008091F00790E001968E0D9F1D0E94CB0C44
:104D900090E00817190741F4D3940894E11CF11C22
:104DA00084E0E816F10421F784E0D81609F4E4C0A1
:104DB00084E795E06CE070E00E941B13C39483E0ED
:104DC000C81609F0A9CF0E94F52487E18093060850
:104DD00097C080E895E06EE070E00E941B131BE036
:104DE000CC24DD2476010E940213282F8B3261F03F
:104DF00080538A3048F4822F90E0C0976C01EE24F3
:104E0000D7FCE094FE2C1F5F1C3008F0EEC02B3462
:104E100051F7EBC082E38093F007CC240F2EFEE81D
:104E20008F2EF5E09F2EF02D0F2EFDE66F2EF5E074
:104E30007F2EF02D0F2EF6E05F2EF02D5E010894F0
:104E4000A11CB11C22243324C4016DE070E00E9437
:104E50001B138091F10790E0C0960E94FA12109205
:104E6000F107C30167E070E00E941B1319821A82E8
:104E70001B821C8200E0152D0E940213982F8B329A
:104E800049F080538A3030F4F501E00FF11D908332
:104E90001F5F0F5F1A3008F0A6C09B3469F7A3C0EC
:104EA000DE2CF501EE0DFF1D008110E000531040D7
:104EB0008091F00790E001968E0D9F1D0E94CB0C13
:104EC00090E00817190741F4D3940894E11CF11CF1
:104ED00084E0E816F10421F784E0D81609F467C0ED
:104EE00084E795E06CE070E00E941B13C39483E0BC
:104EF000C81609F0A9CF0E94F52486E18093060820
:104F0000809106080F900F900F900F900F90CF9107
:104F1000DF911F910F91FF90EF90DF90CF90BF90A6
:104F2000AF909F908F907F906F905F904F903F9049
:104F30002F90089581E00E949F118BE495E00E94DC
:104F40007A11109206088ECE81E08093F2070E94BB
:104F50009F118BE995E00E947A1128E833E148EC33
:104F600050E062CE84E795E06CE070E00E941B1395
:104F700087E180930608C4CF81E08093F20789EA35
:104F800095E06FE070E00E941B1389E180930608B2
:104F900083E0C81609F0B4CF16CF84E795E06CE043
:104FA00070E00E941B1386E180930608A9CF81E080
:104FB0008093F20789EA95E06FE070E00E941B138E
:104FC00088E18093060883E0C81609F099CF93CF53
:104FD000EE24FF2405CE00E010E08CCD7101C8CE98
:104FE00009E110E064CE71015BCF8091F1078F5F22
:104FF0008093F10782E390E00E94CB0C90E0A0E068
:10500000B0E08C159D05AE05BF0539F603CF2F9294
:105010003F924F925F926F927F928F929F92AF9248
:10502000BF92CF92DF92EF92FF920F931F93DF9385
:10503000CF9300D000D00F92CDB7DEB7182F89EBF9
:1050400097E00E94B3108093FB07E12FF0E0E43477
:10505000F10508F0B0C4E65DFF4FEE0FFF1F0590AD
:10506000F491E02D099482E065E00E94DC1188EB68
:1050700095E00E947A1181EC95E06BE070E00E946F
:105080001B138CEC95E068E070E00E941B130F2E60
:10509000F9EBEF2EF7E0FF2EF02DDD240F2EF5E1DA
:1050A000BF2EF02DCC24C3940E940913182F8133F6
:1050B00021F486E1809306087EC4C7010E94B310E4
:1050C0008B3471F480E490E00E94CB0C853020F4A6
:1050D000D09206080C2D15C0B09206080C2D11C0F8
:1050E000123371F481E490E00E94CB0C853020F4FF
:1050F00087E1809306085FC485E1809306085BC45E
:105100000D2D112331F4C7010E94B3108B3409F027
:1051100052C4002349F24FC480E00E9426258093A8
:10512000060849C482E00E9426258093060843C4ED
:1051300081E00E942625809306083DC480E00E94FD
:10514000C5148093060837C482E00E94C51480937A
:10515000060831C481E00E94C514809306082BC460
:1051600080E00E9497168093060825C480E00E9484
:10517000B215809306081FC482E00E94B215809386
:10518000060819C482E00E9497168093060813C48B
:1051900080E490E00E94CB0C8B8381E490E00E943D
:1051A000CB0C8A83198285ED95E060E170E00E9466
:1051B0001B1385EE95E060E170E00E941B1385EF04
:1051C00095E069E070E00E941B138EEF95E069E0C6
:1051D00070E00E941B13DD240F2EF9E1AF2EBB24DB
:1051E000F02D0F2EF7E08F2EF6E09F2EF02D0F2ED4
:1051F000F5E05F2EF02D0F2EF2E16F2EF6E07F2E00
:10520000F02D442443940F2EFCE1CF2EF02D0F2ED1
:10521000F8E13F2EF02D0EC10E942A140E94A9141D
:105220000E94091389838981823309F486C08333FC
:1052300020F4813309F0FEC007C0833309F4F5C0C0
:10524000843309F0F7C0F4C08B818F3F21F08B814C
:10525000843008F06AC0FD2C00E010E0C8010E9414
:10526000CB0C8F3F31F0F3940B5F1F4F25E0F2160C
:10527000A9F7C4016BE070E00E941B13D0920408F0
:10528000F59C80011124E02EF12E18C00E942A14F2
:105290000E94A9140E94091389838981803370F0C8
:1052A00089818A3358F4698160538E2D9F2D0E9425
:1052B0001C2E809104088F5F80930408809104085D
:1052C000882321F3C30166E070E00E941B13409223
:1052D00004081CC00E942A140E94A9140E940913E9
:1052E00089838981803390F089818A3378F4809131
:1052F0000408698160539801280F311DC9010E947B
:105300001C2E809104088F5F80930408809104080C
:10531000853000F38B818F5F8B836B8180E490E01D
:105320000E941C2EC092060885C088E196E0B50157
:105330000E941B13C09206087DC08A818F3F21F016
:105340008A81843008F069C0FD2C8501C8010E9463
:10535000CB0C8F3F31F0F3940B5F1F4F35E0F3160A
:10536000A9F7C4016BE070E00E941B13D0920408FF
:10537000F59C700111248701075E1F4F17C00E9422
:105380002A140E94A9140E940913898389818033F9
:1053900068F089818A3350F469816053C8010E94A2
:1053A0001C2E809104088F5F80930408809104086C
:1053B000882329F3C30166E070E00E941B1340922A
:1053C00004081CC00E942A140E94A9140E940913F8
:1053D00089838981803390F089818A3378F4809140
:1053E0000408698190E0499660538E0D9F1D0E94CC
:1053F0001C2E809104088F5F80930408809104081C
:10540000853000F38A818F5F8A836A8181E490E02E
:105410000E941C2EC09206080DC081E396E0B501E3
:105420000E941B13C092060805C03092060802C0F5
:10543000309206088981803308F4EECE89818A3360
:1054400008F0EACEB8C280E490E00E94CB0C8983D9
:1054500081E490E00E94CB0C8A831B8285ED95E06D
:1054600060E170E00E941B1385EE95E060E170E062
:105470000E941B1385EF95E069E070E00E941B130A
:105480008EEF95E069E070E00E941B130F2EF9E1AA
:10549000AF2EBB24F02D0F2EFDE19F2EF02D0F2EF1
:1054A000F7E06F2EF6E07F2EF02DC501AC829D83D4
:1054B000442455240F2EF8E18F2EF02D0F2EFAE400
:1054C0002F2EF6E03F2EF02DD1C00E942A140E940C
:1054D000A9140E9409138B838B81823309F464C061
:1054E000833320F4813309F0C1C007C0833309F44A
:1054F000B8C0843309F0BAC0B7C08981853008F0DC
:105500004CC0C3016BE070E00E941B1310920508B1
:105510003CC00E942A140E94A9140E9409138B8384
:105520008B81803390F18B818A3378F572010B8106
:105530006701C7010E94CB0C10E00053104090E0BF
:1055400008171907D1F4809105088F5F809305082B
:10555000898181508983698180E490E00E941C2EBA
:105560008201C8018C0D9D1D6FEF0E941C2E0F5FE4
:105570001F4F05301105A9F708C085E090E0E80E3F
:10558000F91E99E1E916F10491F680910508882346
:1055900009F4BFCF9092060869C0C101B5010E940D
:1055A0001B139092060862C08A81853008F051C0B2
:1055B000C3016BE070E00E941B131092050841C00C
:1055C0000E942A140E94A9140E9409138B830E942E
:1055D00002138B838B818033A0F18B818A3388F512
:1055E0008C819D817C010B816701C7010E94CB0CDE
:1055F00010E00053104090E008171907D1F4809193
:1056000005088F5F809305088A8181508A836A81AB
:1056100081E490E00E941C2E8201C8018C0D9D1D2A
:105620006FEF0E941C2E0F5F1F4F05301105A9F769
:1056300008C025E030E0E20EF31E37E3E316F10484
:1056400091F680910508882309F4BACF9092060854
:105650000DC08BE596E0B5010E941B1390920608E1
:1056600005C08092060802C0809206088B818033B4
:1056700008F42BCF8B818A3308F027CF9CC18CE6AE
:1056800096E06BE070E00E941B1303E310E00E94C1
:105690000213682F60536A30D0F7C8010E941C2E95
:1056A0000F5F1F4F0733110591F785E180930608BF
:1056B00082C181E00E94B215809306087CC181E01E
:1056C0000E9497168093060876C180E00E94AF1969
:1056D0008093060870C180E00E94211C8093060818
:1056E0006AC180E00E94711B8093060864C180E05B
:1056F0000E94D81A809306085EC180E00E94971726
:105700008093060858C180E00E94DE23809306083B
:1057100052C180E00E94C518809306084CC182E007
:105720000E9497178093060846C182E00E94DE23FC
:105730008093060840C182E00E94C5188093060845
:105740003AC11B8289E796E060E170E00E941B137A
:1057500089E896E061E170E00E941B1314E20E9468
:105760002A140E94A9140E9409138B838B81813310
:1057700051F0823318F4803391F720C0823369F0FE
:10578000833469F71FC083E065E041E00E94E40DC7
:105790000E94641410930608E2CF83E065E041E0C4
:1057A0000E94E40D80E090E00E94220980E090E0F9
:1057B0000E941C0984E280930608FDC08AE1809360
:1057C0000608F9C088E180930608F5C082E00E94CF
:1057D000AF1980930608EFC082E00E94D81A809328
:1057E0000608E9C082E00E94711B80930608E3C0AE
:1057F00082E00E94211C80930608DDC081E00E94A7
:10580000971780930608D7C081E00E94DE2380931B
:105810000608D1C081E00E94C51880930608CBC05D
:1058200080E00E94C01C80930608C5C080E00E94F2
:10583000841D80930608BFC080E00E94431E8093B1
:105840000608B9C080E00E94021F80930608B3C01A
:1058500080E00E94C11F80930608ADC080E00E94D6
:10586000802080930608A7C080E00E941A218093C0
:105870000608A1C080E00E94B421809306089BC066
:1058800080E00E944E228093060895C080E00E942E
:10589000E822809306088FC081E00E94AF198093B0
:1058A000060889C081E00E94D81A8093060883C048
:1058B00081E00E94711B809306087DC081E00E94F8
:1058C000211C8093060877C082E00E94C01C809350
:1058D000060871C082E00E94841D809306086BC098
:1058E00082E00E94431E8093060865C082E00E9409
:1058F000021F809306085FC082E00E94C11F809350
:10590000060859C082E00E9480208093060853C098
:1059100082E00E941A21809306084DC082E00E9416
:10592000B4218093060847C082E00E944E228093F3
:10593000060841C082E00E94E822809306083BC02E
:1059400081E00E94C01C8093060835C081E00E945F
:10595000841D809306082FC081E00E94431E80931F
:10596000060829C081E00E94021F8093060823C018
:1059700081E00E94C11F809306081DC081E00E9443
:1059800080208093060817C081E00E941A2180932E
:10599000060811C081E00E94B421809306080BC064
:1059A00081E00E944E228093060805C081E00E949B
:1059B000E82280930608809106080F900F900F90C0
:1059C0000F900F90CF91DF911F910F91FF90EF906B
:1059D000DF90CF90BF90AF909F908F907F906F900F
:1059E0005F904F903F902F9008950F931F93CF9308
:1059F000DF930E94D1130E948B120E94F2100E942A
:105A0000A2140E94D10C0E94D01287E063E00E9491
:105A10006D0782E061E00E94AF0883E064E041E04E
:105A20000E94E40D80E060E040E00E94E40D0E94EE
:105A30004410C4EBD7E009EB17E0CE010E949D10A3
:105A40002196C017D107C9F780E06CEF77E00E947C
:105A5000C01181E062EA77E00E94C01182E06AEA48
:105A600077E00E94C011DF91CF911F910F910895AF
:105A70000E94F52C0E94DE1380E092E00E94CB0C85
:105A8000882311F40E94F52485E1809306080E9482
:105A900097248091F207813019F40E94A91402C062
:105AA0000E94331080910608809307080E940728FF
:105AB00080930608EECF629FD001739FF001829F12
:105AC000E00DF11D649FE00DF11D929FF00D839F8D
:105AD000F00D749FF00D659FF00D9927729FB00D2A
